{
  "contractName": "CryptoCoders",
  "abi": [
    {
      "inputs": [],
      "stateMutability": "nonpayable",
      "type": "constructor"
    },
    {
      "anonymous": false,
      "inputs": [
        {
          "indexed": true,
          "internalType": "address",
          "name": "owner",
          "type": "address"
        },
        {
          "indexed": true,
          "internalType": "address",
          "name": "approved",
          "type": "address"
        },
        {
          "indexed": true,
          "internalType": "uint256",
          "name": "tokenId",
          "type": "uint256"
        }
      ],
      "name": "Approval",
      "type": "event"
    },
    {
      "anonymous": false,
      "inputs": [
        {
          "indexed": true,
          "internalType": "address",
          "name": "owner",
          "type": "address"
        },
        {
          "indexed": true,
          "internalType": "address",
          "name": "operator",
          "type": "address"
        },
        {
          "indexed": false,
          "internalType": "bool",
          "name": "approved",
          "type": "bool"
        }
      ],
      "name": "ApprovalForAll",
      "type": "event"
    },
    {
      "anonymous": false,
      "inputs": [
        {
          "indexed": true,
          "internalType": "address",
          "name": "from",
          "type": "address"
        },
        {
          "indexed": true,
          "internalType": "address",
          "name": "to",
          "type": "address"
        },
        {
          "indexed": true,
          "internalType": "uint256",
          "name": "tokenId",
          "type": "uint256"
        }
      ],
      "name": "Transfer",
      "type": "event"
    },
    {
      "inputs": [
        {
          "internalType": "address",
          "name": "to",
          "type": "address"
        },
        {
          "internalType": "uint256",
          "name": "tokenId",
          "type": "uint256"
        }
      ],
      "name": "approve",
      "outputs": [],
      "stateMutability": "nonpayable",
      "type": "function"
    },
    {
      "inputs": [
        {
          "internalType": "address",
          "name": "owner",
          "type": "address"
        }
      ],
      "name": "balanceOf",
      "outputs": [
        {
          "internalType": "uint256",
          "name": "",
          "type": "uint256"
        }
      ],
      "stateMutability": "view",
      "type": "function"
    },
    {
      "inputs": [
        {
          "internalType": "uint256",
          "name": "",
          "type": "uint256"
        }
      ],
      "name": "coders",
      "outputs": [
        {
          "internalType": "string",
          "name": "",
          "type": "string"
        }
      ],
      "stateMutability": "view",
      "type": "function"
    },
    {
      "inputs": [
        {
          "internalType": "uint256",
          "name": "tokenId",
          "type": "uint256"
        }
      ],
      "name": "getApproved",
      "outputs": [
        {
          "internalType": "address",
          "name": "",
          "type": "address"
        }
      ],
      "stateMutability": "view",
      "type": "function"
    },
    {
      "inputs": [
        {
          "internalType": "address",
          "name": "owner",
          "type": "address"
        },
        {
          "internalType": "address",
          "name": "operator",
          "type": "address"
        }
      ],
      "name": "isApprovedForAll",
      "outputs": [
        {
          "internalType": "bool",
          "name": "",
          "type": "bool"
        }
      ],
      "stateMutability": "view",
      "type": "function"
    },
    {
      "inputs": [],
      "name": "name",
      "outputs": [
        {
          "internalType": "string",
          "name": "",
          "type": "string"
        }
      ],
      "stateMutability": "view",
      "type": "function"
    },
    {
      "inputs": [
        {
          "internalType": "uint256",
          "name": "tokenId",
          "type": "uint256"
        }
      ],
      "name": "ownerOf",
      "outputs": [
        {
          "internalType": "address",
          "name": "",
          "type": "address"
        }
      ],
      "stateMutability": "view",
      "type": "function"
    },
    {
      "inputs": [
        {
          "internalType": "address",
          "name": "from",
          "type": "address"
        },
        {
          "internalType": "address",
          "name": "to",
          "type": "address"
        },
        {
          "internalType": "uint256",
          "name": "tokenId",
          "type": "uint256"
        }
      ],
      "name": "safeTransferFrom",
      "outputs": [],
      "stateMutability": "nonpayable",
      "type": "function"
    },
    {
      "inputs": [
        {
          "internalType": "address",
          "name": "from",
          "type": "address"
        },
        {
          "internalType": "address",
          "name": "to",
          "type": "address"
        },
        {
          "internalType": "uint256",
          "name": "tokenId",
          "type": "uint256"
        },
        {
          "internalType": "bytes",
          "name": "_data",
          "type": "bytes"
        }
      ],
      "name": "safeTransferFrom",
      "outputs": [],
      "stateMutability": "nonpayable",
      "type": "function"
    },
    {
      "inputs": [
        {
          "internalType": "address",
          "name": "operator",
          "type": "address"
        },
        {
          "internalType": "bool",
          "name": "approved",
          "type": "bool"
        }
      ],
      "name": "setApprovalForAll",
      "outputs": [],
      "stateMutability": "nonpayable",
      "type": "function"
    },
    {
      "inputs": [
        {
          "internalType": "bytes4",
          "name": "interfaceId",
          "type": "bytes4"
        }
      ],
      "name": "supportsInterface",
      "outputs": [
        {
          "internalType": "bool",
          "name": "",
          "type": "bool"
        }
      ],
      "stateMutability": "view",
      "type": "function"
    },
    {
      "inputs": [],
      "name": "symbol",
      "outputs": [
        {
          "internalType": "string",
          "name": "",
          "type": "string"
        }
      ],
      "stateMutability": "view",
      "type": "function"
    },
    {
      "inputs": [
        {
          "internalType": "uint256",
          "name": "tokenId",
          "type": "uint256"
        }
      ],
      "name": "tokenURI",
      "outputs": [
        {
          "internalType": "string",
          "name": "",
          "type": "string"
        }
      ],
      "stateMutability": "view",
      "type": "function"
    },
    {
      "inputs": [
        {
          "internalType": "address",
          "name": "from",
          "type": "address"
        },
        {
          "internalType": "address",
          "name": "to",
          "type": "address"
        },
        {
          "internalType": "uint256",
          "name": "tokenId",
          "type": "uint256"
        }
      ],
      "name": "transferFrom",
      "outputs": [],
      "stateMutability": "nonpayable",
      "type": "function"
    },
    {
      "inputs": [
        {
          "internalType": "string",
          "name": "coder",
          "type": "string"
        }
      ],
      "name": "mint",
      "outputs": [],
      "stateMutability": "nonpayable",
      "type": "function"
    }
  ],
  "bytecode": "0x60806040523480156200001157600080fd5b506040518060400160405280600c81526020017f43727970746f436f6465727300000000000000000000000000000000000000008152506040518060400160405280600381526020017f4353530000000000000000000000000000000000000000000000000000000000815250816000908051906020019062000096929190620000b8565b508060019080519060200190620000af929190620000b8565b505050620001cd565b828054620000c69062000197565b90600052602060002090601f016020900481019282620000ea576000855562000136565b82601f106200010557805160ff191683800117855562000136565b8280016001018555821562000136579182015b828111156200013557825182559160200191906001019062000118565b5b50905062000145919062000149565b5090565b5b80821115620001645760008160009055506001016200014a565b5090565b7f4e487b7100000000000000000000000000000000000000000000000000000000600052602260045260246000fd5b60006002820490506001821680620001b057607f821691505b60208210811415620001c757620001c662000168565b5b50919050565b6126c980620001dd6000396000f3fe608060405234801561001057600080fd5b50600436106100f55760003560e01c80636352211e11610097578063b88d4fde11610066578063b88d4fde14610296578063c87b56dd146102b2578063d85d3d27146102e2578063e985e9c5146102fe576100f5565b80636352211e146101fc57806370a082311461022c57806395d89b411461025c578063a22cb4651461027a576100f5565b8063095ea7b3116100d3578063095ea7b31461017857806323b872dd1461019457806342842e0e146101b05780634cfa16f9146101cc576100f5565b806301ffc9a7146100fa57806306fdde031461012a578063081812fc14610148575b600080fd5b610114600480360381019061010f919061163a565b61032e565b6040516101219190611682565b60405180910390f35b610132610410565b60405161013f9190611736565b60405180910390f35b610162600480360381019061015d919061178e565b6104a2565b60405161016f91906117fc565b60405180910390f35b610192600480360381019061018d9190611843565b610527565b005b6101ae60048036038101906101a99190611883565b61063f565b005b6101ca60048036038101906101c59190611883565b61069f565b005b6101e660048036038101906101e1919061178e565b6106bf565b6040516101f39190611736565b60405180910390f35b6102166004803603810190610211919061178e565b61076b565b60405161022391906117fc565b60405180910390f35b610246600480360381019061024191906118d6565b61081d565b6040516102539190611912565b60405180910390f35b6102646108d5565b6040516102719190611736565b60405180910390f35b610294600480360381019061028f9190611959565b610967565b005b6102b060048036038101906102ab9190611ace565b61097d565b005b6102cc60048036038101906102c7919061178e565b6109df565b6040516102d99190611736565b60405180910390f35b6102fc60048036038101906102f79190611bf2565b610a86565b005b61031860048036038101906103139190611c3b565b610ac5565b6040516103259190611682565b60405180910390f35b60007f80ac58cd000000000000000000000000000000000000000000000000000000007bffffffffffffffffffffffffffffffffffffffffffffffffffffffff1916827bffffffffffffffffffffffffffffffffffffffffffffffffffffffff191614806103f957507f5b5e139f000000000000000000000000000000000000000000000000000000007bffffffffffffffffffffffffffffffffffffffffffffffffffffffff1916827bffffffffffffffffffffffffffffffffffffffffffffffffffffffff1916145b80610409575061040882610b59565b5b9050919050565b60606000805461041f90611caa565b80601f016020809104026020016040519081016040528092919081815260200182805461044b90611caa565b80156104985780601f1061046d57610100808354040283529160200191610498565b820191906000526020600020905b81548152906001019060200180831161047b57829003601f168201915b5050505050905090565b60006104ad82610bc3565b6104ec576040517f08c379a00000000000000000000000000000000000000000000000000000000081526004016104e390611d4e565b60405180910390fd5b6004600083815260200190815260200160002060009054906101000a900473ffffffffffffffffffffffffffffffffffffffff169050919050565b60006105328261076b565b90508073ffffffffffffffffffffffffffffffffffffffff168373ffffffffffffffffffffffffffffffffffffffff1614156105a3576040517f08c379a000000000000000000000000000000000000000000000000000000000815260040161059a90611de0565b60405180910390fd5b8073ffffffffffffffffffffffffffffffffffffffff166105c2610c2f565b73ffffffffffffffffffffffffffffffffffffffff1614806105f157506105f0816105eb610c2f565b610ac5565b5b610630576040517f08c379a000000000000000000000000000000000000000000000000000000000815260040161062790611e72565b60405180910390fd5b61063a8383610c37565b505050565b61065061064a610c2f565b82610cf0565b61068f576040517f08c379a000000000000000000000000000000000000000000000000000000000815260040161068690611f04565b60405180910390fd5b61069a838383610dce565b505050565b6106ba8383836040518060200160405280600081525061097d565b505050565b600681815481106106cf57600080fd5b9060005260206000200160009150905080546106ea90611caa565b80601f016020809104026020016040519081016040528092919081815260200182805461071690611caa565b80156107635780601f1061073857610100808354040283529160200191610763565b820191906000526020600020905b81548152906001019060200180831161074657829003601f168201915b505050505081565b6000806002600084815260200190815260200160002060009054906101000a900473ffffffffffffffffffffffffffffffffffffffff169050600073ffffffffffffffffffffffffffffffffffffffff168173ffffffffffffffffffffffffffffffffffffffff161415610814576040517f08c379a000000000000000000000000000000000000000000000000000000000815260040161080b90611f96565b60405180910390fd5b80915050919050565b60008073ffffffffffffffffffffffffffffffffffffffff168273ffffffffffffffffffffffffffffffffffffffff16141561088e576040517f08c379a000000000000000000000000000000000000000000000000000000000815260040161088590612028565b60405180910390fd5b600360008373ffffffffffffffffffffffffffffffffffffffff1673ffffffffffffffffffffffffffffffffffffffff168152602001908152602001600020549050919050565b6060600180546108e490611caa565b80601f016020809104026020016040519081016040528092919081815260200182805461091090611caa565b801561095d5780601f106109325761010080835404028352916020019161095d565b820191906000526020600020905b81548152906001019060200180831161094057829003601f168201915b5050505050905090565b610979610972610c2f565b8383611035565b5050565b61098e610988610c2f565b83610cf0565b6109cd576040517f08c379a00000000000000000000000000000000000000000000000000000000081526004016109c490611f04565b60405180910390fd5b6109d9848484846111a2565b50505050565b60606109ea82610bc3565b610a29576040517f08c379a0000000000000000000000000000000000000000000000000000000008152600401610a20906120ba565b60405180910390fd5b6000610a336111fe565b90506000815111610a535760405180602001604052806000815250610a7e565b80610a5d84611215565b604051602001610a6e929190612116565b6040516020818303038152906040525b915050919050565b600681908060018154018082558091505060019003906000526020600020016000909190919091509080519060200190610ac192919061152b565b5050565b6000600560008473ffffffffffffffffffffffffffffffffffffffff1673ffffffffffffffffffffffffffffffffffffffff16815260200190815260200160002060008373ffffffffffffffffffffffffffffffffffffffff1673ffffffffffffffffffffffffffffffffffffffff16815260200190815260200160002060009054906101000a900460ff16905092915050565b60007f01ffc9a7000000000000000000000000000000000000000000000000000000007bffffffffffffffffffffffffffffffffffffffffffffffffffffffff1916827bffffffffffffffffffffffffffffffffffffffffffffffffffffffff1916149050919050565b60008073ffffffffffffffffffffffffffffffffffffffff166002600084815260200190815260200160002060009054906101000a900473ffffffffffffffffffffffffffffffffffffffff1673ffffffffffffffffffffffffffffffffffffffff1614159050919050565b600033905090565b816004600083815260200190815260200160002060006101000a81548173ffffffffffffffffffffffffffffffffffffffff021916908373ffffffffffffffffffffffffffffffffffffffff160217905550808273ffffffffffffffffffffffffffffffffffffffff16610caa8361076b565b73ffffffffffffffffffffffffffffffffffffffff167f8c5be1e5ebec7d5bd14f71427d1e84f3dd0314c0f7b2291e5b200ac8c7c3b92560405160405180910390a45050565b6000610cfb82610bc3565b610d3a576040517f08c379a0000000000000000000000000000000000000000000000000000000008152600401610d31906121ac565b60405180910390fd5b6000610d458361076b565b90508073ffffffffffffffffffffffffffffffffffffffff168473ffffffffffffffffffffffffffffffffffffffff161480610db457508373ffffffffffffffffffffffffffffffffffffffff16610d9c846104a2565b73ffffffffffffffffffffffffffffffffffffffff16145b80610dc55750610dc48185610ac5565b5b91505092915050565b8273ffffffffffffffffffffffffffffffffffffffff16610dee8261076b565b73ffffffffffffffffffffffffffffffffffffffff1614610e44576040517f08c379a0000000000000000000000000000000000000000000000000000000008152600401610e3b9061223e565b60405180910390fd5b600073ffffffffffffffffffffffffffffffffffffffff168273ffffffffffffffffffffffffffffffffffffffff161415610eb4576040517f08c379a0000000000000000000000000000000000000000000000000000000008152600401610eab906122d0565b60405180910390fd5b610ebf838383611376565b610eca600082610c37565b6001600360008573ffffffffffffffffffffffffffffffffffffffff1673ffffffffffffffffffffffffffffffffffffffff1681526020019081526020016000206000828254610f1a919061231f565b925050819055506001600360008473ffffffffffffffffffffffffffffffffffffffff1673ffffffffffffffffffffffffffffffffffffffff1681526020019081526020016000206000828254610f719190612353565b92505081905550816002600083815260200190815260200160002060006101000a81548173ffffffffffffffffffffffffffffffffffffffff021916908373ffffffffffffffffffffffffffffffffffffffff160217905550808273ffffffffffffffffffffffffffffffffffffffff168473ffffffffffffffffffffffffffffffffffffffff167fddf252ad1be2c89b69c2b068fc378daa952ba7f163c4a11628f55a4df523b3ef60405160405180910390a461103083838361137b565b505050565b8173ffffffffffffffffffffffffffffffffffffffff168373ffffffffffffffffffffffffffffffffffffffff1614156110a4576040517f08c379a000000000000000000000000000000000000000000000000000000000815260040161109b906123f5565b60405180910390fd5b80600560008573ffffffffffffffffffffffffffffffffffffffff1673ffffffffffffffffffffffffffffffffffffffff16815260200190815260200160002060008473ffffffffffffffffffffffffffffffffffffffff1673ffffffffffffffffffffffffffffffffffffffff16815260200190815260200160002060006101000a81548160ff0219169083151502179055508173ffffffffffffffffffffffffffffffffffffffff168373ffffffffffffffffffffffffffffffffffffffff167f17307eab39ab6107e8899845ad3d59bd9653f200f220920489ca2b5937696c31836040516111959190611682565b60405180910390a3505050565b6111ad848484610dce565b6111b984848484611380565b6111f8576040517f08c379a00000000000000000000000000000000000000000000000000000000081526004016111ef90612487565b60405180910390fd5b50505050565b606060405180602001604052806000815250905090565b6060600082141561125d576040518060400160405280600181526020017f30000000000000000000000000000000000000000000000000000000000000008152509050611371565b600082905060005b6000821461128f578080611278906124a7565b915050600a82611288919061251f565b9150611265565b60008167ffffffffffffffff8111156112ab576112aa6119a3565b5b6040519080825280601f01601f1916602001820160405280156112dd5781602001600182028036833780820191505090505b5090505b6000851461136a576001826112f6919061231f565b9150600a856113059190612550565b60306113119190612353565b60f81b81838151811061132757611326612581565b5b60200101907effffffffffffffffffffffffffffffffffffffffffffffffffffffffffffff1916908160001a905350600a85611363919061251f565b94506112e1565b8093505050505b919050565b505050565b505050565b60006113a18473ffffffffffffffffffffffffffffffffffffffff16611508565b156114fb578373ffffffffffffffffffffffffffffffffffffffff1663150b7a026113ca610c2f565b8786866040518563ffffffff1660e01b81526004016113ec9493929190612605565b6020604051808303816000875af192505050801561142857506040513d601f19601f820116820180604052508101906114259190612666565b60015b6114ab573d8060008114611458576040519150601f19603f3d011682016040523d82523d6000602084013e61145d565b606091505b506000815114156114a3576040517f08c379a000000000000000000000000000000000000000000000000000000000815260040161149a90612487565b60405180910390fd5b805181602001fd5b63150b7a0260e01b7bffffffffffffffffffffffffffffffffffffffffffffffffffffffff1916817bffffffffffffffffffffffffffffffffffffffffffffffffffffffff191614915050611500565b600190505b949350505050565b6000808273ffffffffffffffffffffffffffffffffffffffff163b119050919050565b82805461153790611caa565b90600052602060002090601f01602090048101928261155957600085556115a0565b82601f1061157257805160ff19168380011785556115a0565b828001600101855582156115a0579182015b8281111561159f578251825591602001919060010190611584565b5b5090506115ad91906115b1565b5090565b5b808211156115ca5760008160009055506001016115b2565b5090565b6000604051905090565b600080fd5b600080fd5b60007fffffffff0000000000000000000000000000000000000000000000000000000082169050919050565b611617816115e2565b811461162257600080fd5b50565b6000813590506116348161160e565b92915050565b6000602082840312156116505761164f6115d8565b5b600061165e84828501611625565b91505092915050565b60008115159050919050565b61167c81611667565b82525050565b60006020820190506116976000830184611673565b92915050565b600081519050919050565b600082825260208201905092915050565b60005b838110156116d75780820151818401526020810190506116bc565b838111156116e6576000848401525b50505050565b6000601f19601f8301169050919050565b60006117088261169d565b61171281856116a8565b93506117228185602086016116b9565b61172b816116ec565b840191505092915050565b6000602082019050818103600083015261175081846116fd565b905092915050565b6000819050919050565b61176b81611758565b811461177657600080fd5b50565b60008135905061178881611762565b92915050565b6000602082840312156117a4576117a36115d8565b5b60006117b284828501611779565b91505092915050565b600073ffffffffffffffffffffffffffffffffffffffff82169050919050565b60006117e6826117bb565b9050919050565b6117f6816117db565b82525050565b600060208201905061181160008301846117ed565b92915050565b611820816117db565b811461182b57600080fd5b50565b60008135905061183d81611817565b92915050565b6000806040838503121561185a576118596115d8565b5b60006118688582860161182e565b925050602061187985828601611779565b9150509250929050565b60008060006060848603121561189c5761189b6115d8565b5b60006118aa8682870161182e565b93505060206118bb8682870161182e565b92505060406118cc86828701611779565b9150509250925092565b6000602082840312156118ec576118eb6115d8565b5b60006118fa8482850161182e565b91505092915050565b61190c81611758565b82525050565b60006020820190506119276000830184611903565b92915050565b61193681611667565b811461194157600080fd5b50565b6000813590506119538161192d565b92915050565b600080604083850312156119705761196f6115d8565b5b600061197e8582860161182e565b925050602061198f85828601611944565b9150509250929050565b600080fd5b600080fd5b7f4e487b7100000000000000000000000000000000000000000000000000000000600052604160045260246000fd5b6119db826116ec565b810181811067ffffffffffffffff821117156119fa576119f96119a3565b5b80604052505050565b6000611a0d6115ce565b9050611a1982826119d2565b919050565b600067ffffffffffffffff821115611a3957611a386119a3565b5b611a42826116ec565b9050602081019050919050565b82818337600083830152505050565b6000611a71611a6c84611a1e565b611a03565b905082815260208101848484011115611a8d57611a8c61199e565b5b611a98848285611a4f565b509392505050565b600082601f830112611ab557611ab4611999565b5b8135611ac5848260208601611a5e565b91505092915050565b60008060008060808587031215611ae857611ae76115d8565b5b6000611af68782880161182e565b9450506020611b078782880161182e565b9350506040611b1887828801611779565b925050606085013567ffffffffffffffff811115611b3957611b386115dd565b5b611b4587828801611aa0565b91505092959194509250565b600067ffffffffffffffff821115611b6c57611b6b6119a3565b5b611b75826116ec565b9050602081019050919050565b6000611b95611b9084611b51565b611a03565b905082815260208101848484011115611bb157611bb061199e565b5b611bbc848285611a4f565b509392505050565b600082601f830112611bd957611bd8611999565b5b8135611be9848260208601611b82565b91505092915050565b600060208284031215611c0857611c076115d8565b5b600082013567ffffffffffffffff811115611c2657611c256115dd565b5b611c3284828501611bc4565b91505092915050565b60008060408385031215611c5257611c516115d8565b5b6000611c608582860161182e565b9250506020611c718582860161182e565b9150509250929050565b7f4e487b7100000000000000000000000000000000000000000000000000000000600052602260045260246000fd5b60006002820490506001821680611cc257607f821691505b60208210811415611cd657611cd5611c7b565b5b50919050565b7f4552433732313a20617070726f76656420717565727920666f72206e6f6e657860008201527f697374656e7420746f6b656e0000000000000000000000000000000000000000602082015250565b6000611d38602c836116a8565b9150611d4382611cdc565b604082019050919050565b60006020820190508181036000830152611d6781611d2b565b9050919050565b7f4552433732313a20617070726f76616c20746f2063757272656e74206f776e6560008201527f7200000000000000000000000000000000000000000000000000000000000000602082015250565b6000611dca6021836116a8565b9150611dd582611d6e565b604082019050919050565b60006020820190508181036000830152611df981611dbd565b9050919050565b7f4552433732313a20617070726f76652063616c6c6572206973206e6f74206f7760008201527f6e6572206e6f7220617070726f76656420666f7220616c6c0000000000000000602082015250565b6000611e5c6038836116a8565b9150611e6782611e00565b604082019050919050565b60006020820190508181036000830152611e8b81611e4f565b9050919050565b7f4552433732313a207472616e736665722063616c6c6572206973206e6f74206f60008201527f776e6572206e6f7220617070726f766564000000000000000000000000000000602082015250565b6000611eee6031836116a8565b9150611ef982611e92565b604082019050919050565b60006020820190508181036000830152611f1d81611ee1565b9050919050565b7f4552433732313a206f776e657220717565727920666f72206e6f6e657869737460008201527f656e7420746f6b656e0000000000000000000000000000000000000000000000602082015250565b6000611f806029836116a8565b9150611f8b82611f24565b604082019050919050565b60006020820190508181036000830152611faf81611f73565b9050919050565b7f4552433732313a2062616c616e636520717565727920666f7220746865207a6560008201527f726f206164647265737300000000000000000000000000000000000000000000602082015250565b6000612012602a836116a8565b915061201d82611fb6565b604082019050919050565b6000602082019050818103600083015261204181612005565b9050919050565b7f4552433732314d657461646174613a2055524920717565727920666f72206e6f60008201527f6e6578697374656e7420746f6b656e0000000000000000000000000000000000602082015250565b60006120a4602f836116a8565b91506120af82612048565b604082019050919050565b600060208201905081810360008301526120d381612097565b9050919050565b600081905092915050565b60006120f08261169d565b6120fa81856120da565b935061210a8185602086016116b9565b80840191505092915050565b600061212282856120e5565b915061212e82846120e5565b91508190509392505050565b7f4552433732313a206f70657261746f7220717565727920666f72206e6f6e657860008201527f697374656e7420746f6b656e0000000000000000000000000000000000000000602082015250565b6000612196602c836116a8565b91506121a18261213a565b604082019050919050565b600060208201905081810360008301526121c581612189565b9050919050565b7f4552433732313a207472616e736665722066726f6d20696e636f72726563742060008201527f6f776e6572000000000000000000000000000000000000000000000000000000602082015250565b60006122286025836116a8565b9150612233826121cc565b604082019050919050565b600060208201905081810360008301526122578161221b565b9050919050565b7f4552433732313a207472616e7366657220746f20746865207a65726f2061646460008201527f7265737300000000000000000000000000000000000000000000000000000000602082015250565b60006122ba6024836116a8565b91506122c58261225e565b604082019050919050565b600060208201905081810360008301526122e9816122ad565b9050919050565b7f4e487b7100000000000000000000000000000000000000000000000000000000600052601160045260246000fd5b600061232a82611758565b915061233583611758565b925082821015612348576123476122f0565b5b828203905092915050565b600061235e82611758565b915061236983611758565b9250827fffffffffffffffffffffffffffffffffffffffffffffffffffffffffffffffff0382111561239e5761239d6122f0565b5b828201905092915050565b7f4552433732313a20617070726f766520746f2063616c6c657200000000000000600082015250565b60006123df6019836116a8565b91506123ea826123a9565b602082019050919050565b6000602082019050818103600083015261240e816123d2565b9050919050565b7f4552433732313a207472616e7366657220746f206e6f6e20455243373231526560008201527f63656976657220696d706c656d656e7465720000000000000000000000000000602082015250565b60006124716032836116a8565b915061247c82612415565b604082019050919050565b600060208201905081810360008301526124a081612464565b9050919050565b60006124b282611758565b91507fffffffffffffffffffffffffffffffffffffffffffffffffffffffffffffffff8214156124e5576124e46122f0565b5b600182019050919050565b7f4e487b7100000000000000000000000000000000000000000000000000000000600052601260045260246000fd5b600061252a82611758565b915061253583611758565b925082612545576125446124f0565b5b828204905092915050565b600061255b82611758565b915061256683611758565b925082612576576125756124f0565b5b828206905092915050565b7f4e487b7100000000000000000000000000000000000000000000000000000000600052603260045260246000fd5b600081519050919050565b600082825260208201905092915050565b60006125d7826125b0565b6125e181856125bb565b93506125f18185602086016116b9565b6125fa816116ec565b840191505092915050565b600060808201905061261a60008301876117ed565b61262760208301866117ed565b6126346040830185611903565b818103606083015261264681846125cc565b905095945050505050565b6000815190506126608161160e565b92915050565b60006020828403121561267c5761267b6115d8565b5b600061268a84828501612651565b9150509291505056fea2646970667358221220ef651dd4a2af4874fc73553c3e157c25e4243720223d53a81662593ba984e8ac64736f6c634300080b0033",
  "immutableReferences": {},
  "source": "// SPDX-License-Identifier: MIT\r\npragma solidity ^0.8.11;\r\n\r\nimport \"../client/node_modules/@openzeppelin/contracts/token/ERC721/ERC721.sol\";\r\n\r\ncontract CryptoCoders is ERC721 {\r\n\r\n  string[] public coders;\r\n\r\n\r\n  constructor() ERC721(\"CryptoCoders\", \"CSS\"){\r\n\r\n  }\r\n\r\n\r\n  function mint(string memory coder) public{\r\n    coders.push(coder);\r\n\r\n  }\r\n  \r\n}\r\n",
  "sourcePath": "C:\\Users\\rober\\Documents\\Crypto\\CryptoCoders\\contracts\\CryptoCoders.sol",
  "compiler": {
    "name": "solc",
    "version": "0.8.11+commit.d7f03943.Emscripten.clang"
  },
  "schemaVersion": "3.4.6",
  "updatedAt": "2022-04-22T04:22:54.171Z",
  "devdoc": {
    "kind": "dev",
    "methods": {
      "approve(address,uint256)": {
        "details": "See {IERC721-approve}."
      },
      "balanceOf(address)": {
        "details": "See {IERC721-balanceOf}."
      },
      "getApproved(uint256)": {
        "details": "See {IERC721-getApproved}."
      },
      "isApprovedForAll(address,address)": {
        "details": "See {IERC721-isApprovedForAll}."
      },
      "name()": {
        "details": "See {IERC721Metadata-name}."
      },
      "ownerOf(uint256)": {
        "details": "See {IERC721-ownerOf}."
      },
      "safeTransferFrom(address,address,uint256)": {
        "details": "See {IERC721-safeTransferFrom}."
      },
      "safeTransferFrom(address,address,uint256,bytes)": {
        "details": "See {IERC721-safeTransferFrom}."
      },
      "setApprovalForAll(address,bool)": {
        "details": "See {IERC721-setApprovalForAll}."
      },
      "supportsInterface(bytes4)": {
        "details": "See {IERC165-supportsInterface}."
      },
      "symbol()": {
        "details": "See {IERC721Metadata-symbol}."
      },
      "tokenURI(uint256)": {
        "details": "See {IERC721Metadata-tokenURI}."
      },
      "transferFrom(address,address,uint256)": {
        "details": "See {IERC721-transferFrom}."
      }
    },
    "version": 1
  },
  "userdoc": {
    "kind": "user",
    "methods": {},
    "version": 1
  }
}